{
  "contractName": "SmartRetailEscrow",
  "abi": [
    {
      "anonymous": false,
      "inputs": [
        {
          "indexed": false,
          "internalType": "string",
          "name": "_contractMessage",
          "type": "string"
        }
      ],
      "name": "FundSendToContract",
      "type": "event"
    },
    {
      "anonymous": false,
      "inputs": [
        {
          "indexed": false,
          "internalType": "string",
          "name": "_SellerMessage",
          "type": "string"
        }
      ],
      "name": "FundSendToSeller",
      "type": "event"
    },
    {
      "anonymous": false,
      "inputs": [
        {
          "indexed": true,
          "internalType": "address",
          "name": "previousOwner",
          "type": "address"
        },
        {
          "indexed": true,
          "internalType": "address",
          "name": "newOwner",
          "type": "address"
        }
      ],
      "name": "OwnershipTransferred",
      "type": "event"
    },
    {
      "inputs": [],
      "name": "currState",
      "outputs": [
        {
          "internalType": "enum SmartRetailEscrow.State",
          "name": "",
          "type": "uint8"
        }
      ],
      "stateMutability": "view",
      "type": "function",
      "constant": true
    },
    {
      "inputs": [],
      "name": "owner",
      "outputs": [
        {
          "internalType": "address",
          "name": "",
          "type": "address"
        }
      ],
      "stateMutability": "view",
      "type": "function",
      "constant": true
    },
    {
      "inputs": [],
      "name": "renounceOwnership",
      "outputs": [],
      "stateMutability": "nonpayable",
      "type": "function"
    },
    {
      "inputs": [
        {
          "internalType": "address",
          "name": "newOwner",
          "type": "address"
        }
      ],
      "name": "transferOwnership",
      "outputs": [],
      "stateMutability": "nonpayable",
      "type": "function"
    },
    {
      "inputs": [],
      "name": "value",
      "outputs": [
        {
          "internalType": "uint256",
          "name": "",
          "type": "uint256"
        }
      ],
      "stateMutability": "view",
      "type": "function",
      "constant": true
    },
    {
      "stateMutability": "payable",
      "type": "receive",
      "payable": true
    },
    {
      "inputs": [
        {
          "internalType": "address payable",
          "name": "_seller",
          "type": "address"
        },
        {
          "internalType": "uint256",
          "name": "_value",
          "type": "uint256"
        }
      ],
      "name": "sendPayement",
      "outputs": [],
      "stateMutability": "payable",
      "type": "function",
      "payable": true
    },
    {
      "inputs": [],
      "name": "confirmDelivery",
      "outputs": [],
      "stateMutability": "payable",
      "type": "function",
      "payable": true
    }
  ],
  "bytecode": "0x608060405260008060146101000a81548160ff0219169083600181111561002257fe5b021790555034801561003357600080fd5b5060006100446100e760201b60201c565b9050806000806101000a81548173ffffffffffffffffffffffffffffffffffffffff021916908373ffffffffffffffffffffffffffffffffffffffff1602179055508073ffffffffffffffffffffffffffffffffffffffff16600073ffffffffffffffffffffffffffffffffffffffff167f8be0079c531659141344cd1fd0a4f28419497f9722a3daafe3b4186f6b6457e060405160405180910390a3506100ef565b600033905090565b610c1b806100fe6000396000f3fe6080604052600436106100745760003560e01c8063715018a61161004e578063715018a6146101035780638da5cb5b1461011a578063afe010431461015b578063f2fde38b146101915761007b565b8063368c8322146100805780633fa4f245146100ce5780635e10177b146100f95761007b565b3661007b57005b600080fd5b6100cc6004803603604081101561009657600080fd5b81019080803573ffffffffffffffffffffffffffffffffffffffff169060200190929190803590602001909291905050506101e2565b005b3480156100da57600080fd5b506100e361052e565b6040518082815260200191505060405180910390f35b610101610534565b005b34801561010f57600080fd5b50610118610752565b005b34801561012657600080fd5b5061012f6108d8565b604051808273ffffffffffffffffffffffffffffffffffffffff16815260200191505060405180910390f35b34801561016757600080fd5b50610170610901565b6040518082600181111561018057fe5b815260200191505060405180910390f35b34801561019d57600080fd5b506101e0600480360360208110156101b457600080fd5b81019080803573ffffffffffffffffffffffffffffffffffffffff169060200190929190505050610914565b005b6101ea610b1f565b73ffffffffffffffffffffffffffffffffffffffff1660008054906101000a900473ffffffffffffffffffffffffffffffffffffffff1673ffffffffffffffffffffffffffffffffffffffff16146102aa576040517f08c379a00000000000000000000000000000000000000000000000000000000081526004018080602001828103825260208152602001807f4f776e61626c653a2063616c6c6572206973206e6f7420746865206f776e657281525060200191505060405180910390fd5b81600160006101000a81548173ffffffffffffffffffffffffffffffffffffffff021916908373ffffffffffffffffffffffffffffffffffffffff16021790555080600281905550600060018111156102ff57fe5b600060149054906101000a900460ff16600181111561031a57fe5b1461038d576040517f08c379a000000000000000000000000000000000000000000000000000000000815260040180806020018281038252600c8152602001807f416c72656164792070616964000000000000000000000000000000000000000081525060200191505060405180910390fd5b34600254146103e7576040517f08c379a0000000000000000000000000000000000000000000000000000000008152600401808060200182810382526024815260200180610b4e6024913960400191505060405180910390fd5b343373ffffffffffffffffffffffffffffffffffffffff16311015610474576040517f08c379a00000000000000000000000000000000000000000000000000000000081526004018080602001828103825260128152602001807f4e6f7420656e6f7567682062616c616e6365000000000000000000000000000081525060200191505060405180910390fd5b3073ffffffffffffffffffffffffffffffffffffffff166108fc349081150290604051600060405180830381858888f193505050501580156104ba573d6000803e3d6000fd5b507fd9dcaab39c3e252224cb728d6f2689e837e1690965605ea09d0222ce8177ae1a604051808060200182810382526026815260200180610bc06026913960400191505060405180910390a16001600060146101000a81548160ff0219169083600181111561052557fe5b02179055505050565b60025481565b61053c610b1f565b73ffffffffffffffffffffffffffffffffffffffff1660008054906101000a900473ffffffffffffffffffffffffffffffffffffffff1673ffffffffffffffffffffffffffffffffffffffff16146105fc576040517f08c379a00000000000000000000000000000000000000000000000000000000081526004018080602001828103825260208152602001807f4f776e61626c653a2063616c6c6572206973206e6f7420746865206f776e657281525060200191505060405180910390fd5b60018081111561060857fe5b600060149054906101000a900460ff16600181111561062357fe5b14610679576040517f08c379a0000000000000000000000000000000000000000000000000000000008152600401808060200182810382526026815260200180610b726026913960400191505060405180910390fd5b600160009054906101000a900473ffffffffffffffffffffffffffffffffffffffff1673ffffffffffffffffffffffffffffffffffffffff166108fc479081150290604051600060405180830381858888f193505050501580156106e1573d6000803e3d6000fd5b507fe946db6e2027b835c5ff1422549a18be09c58ad35fd1c7f47e8e8c72b7c0888c604051808060200182810382526028815260200180610b986028913960400191505060405180910390a160008060146101000a81548160ff0219169083600181111561074b57fe5b0217905550565b61075a610b1f565b73ffffffffffffffffffffffffffffffffffffffff1660008054906101000a900473ffffffffffffffffffffffffffffffffffffffff1673ffffffffffffffffffffffffffffffffffffffff161461081a576040517f08c379a00000000000000000000000000000000000000000000000000000000081526004018080602001828103825260208152602001807f4f776e61626c653a2063616c6c6572206973206e6f7420746865206f776e657281525060200191505060405180910390fd5b600073ffffffffffffffffffffffffffffffffffffffff1660008054906101000a900473ffffffffffffffffffffffffffffffffffffffff1673ffffffffffffffffffffffffffffffffffffffff167f8be0079c531659141344cd1fd0a4f28419497f9722a3daafe3b4186f6b6457e060405160405180910390a360008060006101000a81548173ffffffffffffffffffffffffffffffffffffffff021916908373ffffffffffffffffffffffffffffffffffffffff160217905550565b60008060009054906101000a900473ffffffffffffffffffffffffffffffffffffffff16905090565b600060149054906101000a900460ff1681565b61091c610b1f565b73ffffffffffffffffffffffffffffffffffffffff1660008054906101000a900473ffffffffffffffffffffffffffffffffffffffff1673ffffffffffffffffffffffffffffffffffffffff16146109dc576040517f08c379a00000000000000000000000000000000000000000000000000000000081526004018080602001828103825260208152602001807f4f776e61626c653a2063616c6c6572206973206e6f7420746865206f776e657281525060200191505060405180910390fd5b600073ffffffffffffffffffffffffffffffffffffffff168173ffffffffffffffffffffffffffffffffffffffff161415610a62576040517f08c379a0000000000000000000000000000000000000000000000000000000008152600401808060200182810382526026815260200180610b286026913960400191505060405180910390fd5b8073ffffffffffffffffffffffffffffffffffffffff1660008054906101000a900473ffffffffffffffffffffffffffffffffffffffff1673ffffffffffffffffffffffffffffffffffffffff167f8be0079c531659141344cd1fd0a4f28419497f9722a3daafe3b4186f6b6457e060405160405180910390a3806000806101000a81548173ffffffffffffffffffffffffffffffffffffffff021916908373ffffffffffffffffffffffffffffffffffffffff16021790555050565b60003390509056fe4f776e61626c653a206e6577206f776e657220697320746865207a65726f2061646472657373596f75277265206e6f742073656e64696e672074686520636f72726563742076616c7565596f752063616e6e6f7420636f6e6669726d20756e74696c206465706f7369742066697273745375636365737366756c6c79207472616e736665727265642066756e647320746f2073656c6c65725375636365737366756c6c79206465706f7369742066756e647320746f20636f6e7472616374a26469706673582212205da529012e7faaeb0a59135c1ada3f9990c80cddc56329e978dbb9207f47c21d64736f6c634300060c0033",
  "immutableReferences": {},
  "source": "// SPDX-License-Identifier: MIT\npragma solidity >=0.4.21 <0.7.0;\n\nimport \"@openzeppelin/contracts/access/Ownable.sol\";\nimport \"@openzeppelin/contracts/math/SafeMath.sol\";\n\n\ncontract SmartRetailEscrow is Ownable{\n    \n    using SafeMath for uint;\n    \n    event FundSendToContract(string _contractMessage);\n    event FundSendToSeller(string _SellerMessage);\n    enum State { AWAITING_PAYMENT, AWAITING_DELIVERY }\n    State public currState = State.AWAITING_PAYMENT;\n    address payable seller;\n    uint public value;\n    \n    // constructor(address payable _seller, uint _value) public {\n    //     seller = _seller;\n    //     value = _value;\n    // }\n    \n    \n     receive() external payable {}\n\n     /**\n     * @notice deposit value send to deployed smartcontract\n     */\n    function sendPayement(address payable _seller, uint _value) external payable onlyOwner {\n        seller = _seller;\n        value = _value;\n        require(currState == State.AWAITING_PAYMENT, \"Already paid\");\n        require(value == msg.value, \"You're not sending the correct value\");\n        require (msg.sender.balance >= msg.value, \"Not enough balance\");\n        address(this).transfer(msg.value);\n        emit FundSendToContract(\"Successfully deposit funds to contract\");\n        currState = State.AWAITING_DELIVERY;\n    }\n\n    /**\n     * @notice confirmDelivery call by the buyer in order to trigger paiement to the seller \n     */\n    function confirmDelivery() external payable onlyOwner {\n        require(currState == State.AWAITING_DELIVERY, \"You cannot confirm until deposit first\");\n        seller.transfer(address(this).balance);\n        emit FundSendToSeller(\"Successfully transferred funds to seller\");\n        currState = State.AWAITING_PAYMENT;\n    }\n}",
  "sourcePath": "/mnt/c/Users/damie/Documents/Smart_Retail/contracts/SmartRetailEscrow.sol",
  "compiler": {
    "name": "solc",
    "version": "0.6.12+commit.27d51765.Emscripten.clang"
  },
  "schemaVersion": "3.3.2",
  "updatedAt": "2021-01-02T23:56:50.794Z",
  "networkType": "ethereum",
  "devdoc": {
    "kind": "dev",
    "methods": {
      "owner()": {
        "details": "Returns the address of the current owner."
      },
      "renounceOwnership()": {
        "details": "Leaves the contract without owner. It will not be possible to call `onlyOwner` functions anymore. Can only be called by the current owner. NOTE: Renouncing ownership will leave the contract without an owner, thereby removing any functionality that is only available to the owner."
      },
      "transferOwnership(address)": {
        "details": "Transfers ownership of the contract to a new account (`newOwner`). Can only be called by the current owner."
      }
    },
    "version": 1
  },
  "userdoc": {
    "kind": "user",
    "methods": {
      "confirmDelivery()": {
        "notice": "confirmDelivery call by the buyer in order to trigger paiement to the seller "
      },
      "sendPayement(address,uint256)": {
        "notice": "deposit value send to deployed smartcontract"
      }
    },
    "version": 1
  }
}