{
  "contractName": "TokenManagerInterface",
  "abi": [
    {
      "inputs": [
        {
          "internalType": "address",
          "name": "dest",
          "type": "address"
        },
        {
          "internalType": "uint256",
          "name": "amount",
          "type": "uint256"
        }
      ],
      "name": "asyncDeposit",
      "outputs": [],
      "stateMutability": "nonpayable",
      "type": "function"
    },
    {
      "inputs": [
        {
          "internalType": "address",
          "name": "dest",
          "type": "address"
        }
      ],
      "name": "claim",
      "outputs": [],
      "stateMutability": "nonpayable",
      "type": "function"
    }
  ],
  "bytecode": "0x608060405234801561001057600080fd5b50610100806100206000396000f3fe6080604052348015600f57600080fd5b506004361060325760003560e01c80631e83409a1460375780637c7a39a4146078575b600080fd5b607660048036036020811015604b57600080fd5b81019080803573ffffffffffffffffffffffffffffffffffffffff16906020019092919050505060c3565b005b60c160048036036040811015608c57600080fd5b81019080803573ffffffffffffffffffffffffffffffffffffffff1690602001909291908035906020019092919050505060c6565b005b50565b505056fea2646970667358221220a0737159ea5a5d1b87bc54ed75c4dcc94637c66ef7570c0915f7af4d6c2c121d64736f6c634300060c0033",
  "immutableReferences": {},
  "source": "// SPDX-License-Identifier: MIT\npragma solidity 0.6.12;\n\nimport \"@openzeppelin/contracts/access/Ownable.sol\";\nimport \"@openzeppelin/contracts/math/SafeMath.sol\";\nimport \"@openzeppelin/contracts/utils/ReentrancyGuard.sol\";\nimport \"@openzeppelin/contracts/payment/escrow/Escrow.sol\";\nimport \"./FDLTTokenManager.sol\";\n\n/** @author The SmartRetail Team\n  * @title TokenManagerInterface\n \t* @dev Import asyncDeposit and claim from FDLTTokenManager.sol\n\t*/\ncontract TokenManagerInterface {\n    function asyncDeposit(address dest, uint256 amount) external{}\n    function claim(address dest) external {}\n}\n\n/** @author The SmartRetail Team\n  * @title SmartRetailEscrow\n\t*/\ncontract SmartRetailEscrow is Ownable, ReentrancyGuard { \n\tEscrow private escrow;\n\tTokenManagerInterface tokenManagerContract;\n\n\tevent FundSendToContract(string contractMessage,  uint orderId, address seller, address buyer, uint amount ,State state);\n\tevent FundSendToSeller(string sellerMessage,  uint orderId);\n\n\tmapping(uint => Order) public listOrders;\n\tstruct Order {\n\t\t\taddress payable seller;\n\t\t\taddress buyer;\n\t\t\tuint amount;\n\t\t\tState state;\n\t} \n\n\tenum State { AWAITING_PAYMENT, AWAITING_DELIVERY, PAID}\n\n\tconstructor(address _tokenManagerContractAddress) ReentrancyGuard() public {\n\t\t/// @notice Create new escrow contract for current order\n\t\t\tescrow = new Escrow();\n\t\t/// @notice Fetch the right interface contract where FDLTTokenManager.sol is deployed\n\t\t\ttokenManagerContract = TokenManagerInterface(_tokenManagerContractAddress);\n\t}\n\n\treceive() external payable {}\n\n\t/**\n\t\t* @notice Receives payments from buyer address and keep it in an escrow\n\t\t* @dev The _value param's unit must be in wei\n\t\t* @param _seller The address of the product seller\n\t\t* @param _value The value of the product\n\t\t*/\n\tfunction sendPayment(address payable _seller, uint _value) external payable {\n\t\t\trequire((_value) == msg.value, \"You're not sending the correct value\");\n\n\t\t\tOrder memory newOrder;\n\n\t\t\tnewOrder.seller = _seller;\n\t\t\tnewOrder.buyer = msg.sender;\n\t\t\tnewOrder.amount = msg.value;\n\n\t\t\tescrow.deposit{value: msg.value}(_seller);\n\t\t\tnewOrder.state = State.AWAITING_DELIVERY;\n\t\t\tlistOrders[block.timestamp] = newOrder;\n\n\t\t\temit FundSendToContract(\"Successfully deposit funds to contract\", block.timestamp, newOrder.seller, newOrder.buyer,  newOrder.amount, newOrder.state);\n\t}\n\n\t\t/**\n\t\t* @notice Withdraw funds from escrow to seller address\n\t\t* @dev The _orderId param must be the block timestamp of the associated sendPayement fonction transaction\n\t\t* @param _orderId The order id\n\t\t*/\n\tfunction confirmDelivery(uint _orderId) external nonReentrant() {\n\t\t\trequire(listOrders[_orderId].state != State.PAID, \"order is already paid\");\n\t\t\trequire(listOrders[_orderId].state == State.AWAITING_DELIVERY, \"You cannot confirm until deposit first\");\n\t\t\trequire(listOrders[_orderId].amount == escrow.depositsOf(listOrders[_orderId].seller), \"incorrect order value\");\n\t\t\trequire(listOrders[_orderId].buyer == msg.sender, \"caller is not the buyer\");\n\n\t\t\tescrow.withdraw(listOrders[_orderId].seller);\n\t\t\t// todo function convert orderAmount to tokenAmount\n\t\t\ttokenManagerContract.asyncDeposit(msg.sender, listOrders[_orderId].amount );\n\t\t\tlistOrders[_orderId].state = State.PAID;\n\n\t\t\temit FundSendToSeller(\"Successfully transferred funds to seller\", _orderId);\n\t}\n\n\t/**\n\t\t* @notice Set a new FDLTTokenManager.sol contract address in case of updates\n\t\t* @param _address The FDLTTokenManager.sol contract address\n\t\t*/\n\tfunction setTokenManagerContractAddress(address _address) external onlyOwner {\n\t\t\ttokenManagerContract = TokenManagerInterface(_address);\n\t}\n\t\n\n\t/**\n\t\t* @notice Get the deposit amount locked in escrow contract waiting to transfer to caller\n\t\t* @return uint the pending amount of caller\n\t\t*/\n\tfunction getDepositsOf() public view returns(uint){\n\t\t\treturn escrow.depositsOf(msg.sender);\n\t}\n}",
  "sourcePath": "/mnt/c/Users/damie/Documents/Smart_Retail/contracts/SmartRetailEscrow.sol",
  "compiler": {
    "name": "solc",
    "version": "0.6.12+commit.27d51765.Emscripten.clang"
  },
  "schemaVersion": "3.3.2",
  "updatedAt": "2021-01-08T20:29:08.083Z",
  "devdoc": {
    "author": "The SmartRetail Team",
    "details": "Import asyncDeposit and claim from FDLTTokenManager.sol",
    "kind": "dev",
    "methods": {},
    "title": "TokenManagerInterface",
    "version": 1
  },
  "userdoc": {
    "kind": "user",
    "methods": {},
    "version": 1
  }
}