{
  "contractName": "TokenManagerInterface",
  "abi": [
    {
      "inputs": [
        {
          "internalType": "address",
          "name": "dest",
          "type": "address"
        },
        {
          "internalType": "uint256",
          "name": "amount",
          "type": "uint256"
        }
      ],
      "name": "asyncDeposit",
      "outputs": [],
      "stateMutability": "nonpayable",
      "type": "function"
    },
    {
      "inputs": [
        {
          "internalType": "address",
          "name": "dest",
          "type": "address"
        }
      ],
      "name": "claim",
      "outputs": [],
      "stateMutability": "nonpayable",
      "type": "function"
    }
  ],
  "bytecode": "0x608060405234801561001057600080fd5b50610100806100206000396000f3fe6080604052348015600f57600080fd5b506004361060325760003560e01c80631e83409a1460375780637c7a39a4146078575b600080fd5b607660048036036020811015604b57600080fd5b81019080803573ffffffffffffffffffffffffffffffffffffffff16906020019092919050505060c3565b005b60c160048036036040811015608c57600080fd5b81019080803573ffffffffffffffffffffffffffffffffffffffff1690602001909291908035906020019092919050505060c6565b005b50565b505056fea2646970667358221220908c82bd12dc27d6427b0d9adea2ed4dbc976c6acfc2f13e03f957aa29c43f1264736f6c634300060c0033",
  "immutableReferences": {},
  "source": "// SPDX-License-Identifier: MIT\npragma solidity >=0.4.21 <0.7.0;\n\nimport \"@openzeppelin/contracts/access/Ownable.sol\";\nimport \"@openzeppelin/contracts/math/SafeMath.sol\";\nimport \"@openzeppelin/contracts/utils/ReentrancyGuard.sol\";\nimport \"@openzeppelin/contracts/payment/escrow/Escrow.sol\";\nimport \"./FDLTTokenManager.sol\";\n\ncontract TokenManagerInterface {\n    function asyncDeposit(address dest, uint256 amount) external{}\n    function claim(address dest) external {}\n}\n\ncontract SmartRetailEscrow is Ownable, ReentrancyGuard {\n    Escrow private escrow;\n    TokenManagerInterface tokenManagerContract;\n    \n    event FundSendToContract(string _contractMessage);\n    event FundSendToSeller(string _SellerMessage);\n\n    enum State { AWAITING_PAYMENT, AWAITING_DELIVERY }\n    mapping(address => State) currState;\n\n    address payable seller;\n    address buyer;\n\n    constructor(address _tokenManagerContractAddress) ReentrancyGuard() public {\n        escrow = new Escrow();\n        tokenManagerContract = TokenManagerInterface(_tokenManagerContractAddress);\n        buyer = msg.sender;\n    }\n    \n    receive() external payable {}\n    \n    /**\n     * Receives payments from customers in contract\n     */\n    function sendPayment(address payable _seller, uint _value) external payable onlyOwner{\n        seller = _seller;\n        require(currState[msg.sender] == State.AWAITING_PAYMENT, \"Already paid\");\n        require((_value) == msg.value, \"You're not sending the correct value\");\n        escrow.deposit{value: msg.value}(seller);\n        currState[msg.sender] = State.AWAITING_DELIVERY;\n        emit FundSendToContract(\"Successfully deposit funds to contract\");\n    }\n        \n    /**\n     * Withdraw funds to seller\n     */\n    function confirmDelivery(uint _amount) external onlyOwner nonReentrant() {\n        require(currState[msg.sender] == State.AWAITING_DELIVERY, \"You cannot confirm until deposit first\");\n        escrow.withdraw(seller);\n        tokenManagerContract.asyncDeposit(msg.sender, _amount);\n        currState[msg.sender] = State.AWAITING_PAYMENT;\n        emit FundSendToSeller(\"Successfully transferred funds to seller\");\n    }\n    \n    function setTokenManagerContractAddress(address _address) external onlyOwner {\n        tokenManagerContract = TokenManagerInterface(_address);\n    }\n\n}",
  "sourcePath": "/mnt/c/Users/damie/Documents/Smart_Retail/contracts/SmartRetailEscrow.sol",
  "compiler": {
    "name": "solc",
    "version": "0.6.12+commit.27d51765.Emscripten.clang"
  },
  "schemaVersion": "3.3.2",
  "updatedAt": "2021-01-06T11:37:27.933Z",
  "devdoc": {
    "kind": "dev",
    "methods": {},
    "version": 1
  },
  "userdoc": {
    "kind": "user",
    "methods": {},
    "version": 1
  }
}