{
  "contractName": "TokenManagerInterface",
  "abi": [
    {
      "inputs": [
        {
          "internalType": "address",
          "name": "dest",
          "type": "address"
        },
        {
          "internalType": "uint256",
          "name": "amount",
          "type": "uint256"
        }
      ],
      "name": "asyncDeposit",
      "outputs": [],
      "stateMutability": "nonpayable",
      "type": "function"
    },
    {
      "inputs": [
        {
          "internalType": "address",
          "name": "dest",
          "type": "address"
        }
      ],
      "name": "claim",
      "outputs": [],
      "stateMutability": "nonpayable",
      "type": "function"
    }
  ],
  "bytecode": "0x608060405234801561001057600080fd5b50610100806100206000396000f3fe6080604052348015600f57600080fd5b506004361060325760003560e01c80631e83409a1460375780637c7a39a4146078575b600080fd5b607660048036036020811015604b57600080fd5b81019080803573ffffffffffffffffffffffffffffffffffffffff16906020019092919050505060c3565b005b60c160048036036040811015608c57600080fd5b81019080803573ffffffffffffffffffffffffffffffffffffffff1690602001909291908035906020019092919050505060c6565b005b50565b505056fea2646970667358221220901c5feb45257c84a99da6be42a341f20409b89411467081b315784ab2f8832764736f6c634300060c0033",
  "immutableReferences": {},
  "source": "// SPDX-License-Identifier: MIT\npragma solidity 0.6.12;\n\nimport \"@openzeppelin/contracts/access/Ownable.sol\";\nimport \"@openzeppelin/contracts/math/SafeMath.sol\";\nimport \"@openzeppelin/contracts/utils/ReentrancyGuard.sol\";\nimport \"@openzeppelin/contracts/payment/escrow/Escrow.sol\";\nimport \"./FDLTTokenManager.sol\";\n\ncontract TokenManagerInterface {\n    function asyncDeposit(address dest, uint256 amount) external{}\n    function claim(address dest) external {}\n}\n\ncontract SmartRetailEscrow is Ownable, ReentrancyGuard {\n    Escrow private escrow;\n    TokenManagerInterface tokenManagerContract;\n\n    event FundSendToContract(string contractMessage,  uint orderId, address seller, address buyer, uint amount ,State state);\n    event FundSendToSeller(string sellerMessage,  uint orderId);\n\n    mapping(uint => Order) public listOrder;\n    struct Order {\n        address payable seller;\n        address buyer;\n        uint amount;\n        State state;\n    } \n\n    enum State { AWAITING_PAYMENT, AWAITING_DELIVERY, PAID}\n\n    constructor(address _tokenManagerContractAddress) ReentrancyGuard() public {\n        escrow = new Escrow();\n        tokenManagerContract = TokenManagerInterface(_tokenManagerContractAddress);\n    }\n\n    receive() external payable {}\n\n    /**\n     * Receives payments from customers in contract\n     */\n    function sendPayment(address payable _seller, uint _value) external payable {\n        require((_value) == msg.value, \"You're not sending the correct value\");\n\n        Order memory newOrder;\n        newOrder.seller = _seller;\n        newOrder.buyer = msg.sender;\n        newOrder.amount = msg.value;\n\n        escrow.deposit{value: msg.value}(_seller);\n        newOrder.state = State.AWAITING_DELIVERY;\n        listOrder[block.timestamp] = newOrder;\n        emit FundSendToContract(\"Successfully deposit funds to contract\", block.timestamp, newOrder.seller, newOrder.buyer,  newOrder.amount, newOrder.state);\n    }\n\n    /**\n     * Withdraw funds to seller\n     */\n    function confirmDelivery(uint _orderId) external nonReentrant() {\n        require(listOrder[_orderId].state != State.PAID, \"order is already paid\");\n        require(listOrder[_orderId].state == State.AWAITING_DELIVERY, \"You cannot confirm until deposit first\");\n        require(listOrder[_orderId].amount == escrow.depositsOf(listOrder[_orderId].seller), \"incorrect order value\");\n        require(listOrder[_orderId].buyer == msg.sender, \"caller is not the buyer\");\n        escrow.withdraw(listOrder[_orderId].seller);\n        // todo function convert orderAmount to tokenAmount\n        tokenManagerContract.asyncDeposit(msg.sender, listOrder[_orderId].amount );\n        listOrder[_orderId].state = State.PAID;\n        emit FundSendToSeller(\"Successfully transferred funds to seller\", _orderId);\n    }\n\n    function setTokenManagerContractAddress(address _address) external onlyOwner {\n        tokenManagerContract = TokenManagerInterface(_address);\n    }\n    \n    function getDepositsOf() public view returns(uint){\n        return escrow.depositsOf(msg.sender);\n    }\n}",
  "sourcePath": "/mnt/c/Users/damie/Documents/Smart_Retail/contracts/SmartRetailEscrow.sol",
  "compiler": {
    "name": "solc",
    "version": "0.6.12+commit.27d51765.Emscripten.clang"
  },
  "schemaVersion": "3.3.2",
  "updatedAt": "2021-01-08T09:40:47.166Z",
  "devdoc": {
    "kind": "dev",
    "methods": {},
    "version": 1
  },
  "userdoc": {
    "kind": "user",
    "methods": {},
    "version": 1
  }
}